:100000000C94B7000C94D4000C94D4000C94D4003D
:100010000C94D4000C94D4000C94D4000C94D40010
:100020000C94D4000C94D4000C94D4000C94D40000
:100030000C94D4000C94D4000C94D4000C94D400F0
:100040000C94D4000C940F090C94D4000C94D4009C
:100050000C94D4000C94D4000C94D4000C94D400D0
:100060000C94E2080C94D4000C94D4006E616E00E1
:10007000696E660000407A10F35A00A0724E1809AB
:100080000010A5D4E80000E87648170000E40B54FF
:10009000020000CA9A3B000000E1F50500008096CE
:1000A0009800000040420F000000A0860100000000
:1000B000102700000000E8030000000064000000BA
:1000C00000000A00000000000100000000002C7683
:1000D000D888DC674F0823DFC1DFAE59E1B1B7969E
:1000E000E5E3E453C63AE651997696E8E6C28426FB
:1000F000EB898C9B62ED407C6FFCEFBC9C9F40F2D7
:10010000BAA56FA5F490055A2AF75C936B6CF96752
:100110006DC11BFCE0E40D47FEF520E6B500D0ED17
:10012000902E0300943577050080841E080000207F
:100130004E0A000000C80C333333330F986E12831D
:100140001141EF8D2114893BE65516CFFEE6DB18F1
:10015000D1844B381BF77C1D901DA4BBE4242032B6
:1001600084725E228100C9F124ECA1E53D271124AF
:100170001FBECFEFD4E0DEBFCDBF11E0A0E0B1E005
:10018000EAE4F1E202C005900D92AA3EB107D9F768
:1001900022E0AAEEB1E001C01D92AB31B207E1F757
:1001A0000E94D0030C94A3100C9400000E94C2067D
:1001B000089587B1807C87B988B18F6388B9089525
:1001C00080E090E058C046B1FC01EE0FFF1FEE0F3B
:1001D000FF1FE050FF4F21E030E0008002C0220FFF
:1001E000331F0A94E2F72423F1F4FC01EE0FFF1F02
:1001F000EE0FFF1FE050FF4F218121110AC0FC01CB
:10020000EE0FFF1FEE0FFF1FE050FF4F21E0218395
:1002100031C0FC01EE0FFF1FEE0FFF1FE050FF4F3C
:1002200022E0218327C0FC01EE0FFF1FEE0FFF1F0E
:10023000E050FF4F2381222351F0FC01EE0FFF1FFE
:10024000EE0FFF1FE050FF4F2150238313C0FC012E
:10025000EE0FFF1FEE0FFF1FE050FF4F21812150D7
:10026000223040F4FC01EE0FFF1FEE0FFF1FE050A5
:10027000FF4F11820196863091050CF4A4CF0895AA
:100280001092EC011092EB0180910901813019F478
:1002900080930A011AC08230C1F0811116C080918A
:1002A0000A01882391F081E08093EE018091ED01B5
:1002B000853020F48F5F8093ED0102C01092ED0134
:1002C00081E08093180110920A0180910D01813024
:1002D00019F480930E011BC08230C9F0811117C040
:1002E00080910E01882399F081E08093EE01809146
:1002F000ED01882321F081508093ED0103C085E05A
:100300008093ED0181E08093180110920E0180919D
:100310001501813019F4809316010895823079F027
:1003200081110DC080911601882349F01092EE01D1
:100330001092ED0181E0809318011092160108954A
:1003400095B1986095B99BB19D7F9BB92DE02A9599
:10035000F1F7000090E020C0282F30E0092E02C005
:10036000359527950A94E2F720FF04C025B128604F
:1003700025B903C025B1277F25B925B1206225B94C
:1003800022E02A95F1F700C025B12F7D25B922E0A2
:100390002A95F1F700C09F5F9830F0F28DE08A95C2
:1003A000F1F700008BB182608BB985B1877F85B989
:1003B00090E00FC085B1806285B922E02A95F1F7FF
:1003C00000C085B18F7D85B982E08A95F1F700C0C4
:1003D0009F5F983078F308950E94480680EC0E9451
:1003E00078068AE18A95F1F700C080E00E947806DD
:1003F0008AE18A95F1F700C080E00E9478060E94A9
:1004000060068AE18A95F1F700C00E94480680ECF8
:100410000E9478068AE18A95F1F700C081E00E9487
:1004200078068AE18A95F1F700C080E20E9478069A
:100430008AE18A95F1F700C00E9460068AE18A95F8
:10044000F1F700C00E94480680EC0E9478068AE11D
:100450008A95F1F700C080E00E9478068AE18A95CB
:10046000F1F700C080E00E9478068AE18A95F1F7F2
:1004700000C00E9460068AE18A95F1F700C00E94E0
:10048000480680EC0E9478068AE18A95F1F700C060
:1004900088E00E9478068AE18A95F1F700C08FEF24
:1004A0000E9478068AE18A95F1F700C00E946006F2
:1004B0008AE18A95F1F700C00E94480680EC0E940C
:1004C00078068AE18A95F1F700C081E00E947806FB
:1004D0008AE18A95F1F700C080E20E9478068AE1FD
:1004E0008A95F1F700C00E9460068AE18A95F1F7CB
:1004F00000C00E94480680EC0E9478068AE18A9536
:10050000F1F700C084E00E9478068AE18A95F1F74D
:1005100000C08FEF0E9478068AE18A95F1F700C04B
:100520000E9460068AE18A95F1F700C00E944806A1
:1005300080EC0E9478068AE18A95F1F700C083E09A
:100540000E9478068AE18A95F1F700C08FEF0E9439
:1005500078068AE18A95F1F700C00E9460068AE178
:100560008A95F1F700C00E94480680EC0E94780648
:100570008AE18A95F1F700C082E00E9478068AE15C
:100580008A95F1F700C08FEF0E9478068AE18A957C
:10059000F1F700C00E9460068AE18A95F1F700C079
:1005A00008951F93CF93DF93182FD62FC42F0E9447
:1005B000480680EC0E9478068AE18A95F1F700C02F
:1005C00084E00E9478068AE18A95F1F700C0812FC5
:1005D0000E9478068AE18A95F1F700C00E946006C1
:1005E0008AE18A95F1F700C00E94480680EC0E94DB
:1005F00078068AE18A95F1F700C083E00E947806C8
:100600008AE18A95F1F700C08D2F0E9478068AE171
:100610008A95F1F700C00E9460068AE18A95F1F799
:1006200000C00E94480680EC0E9478068AE18A9504
:10063000F1F700C082E00E9478068AE18A95F1F71E
:1006400000C08C2F0E9478060E9460068AE18A957D
:10065000F1F700C0DF91CF911F910895CF93DF9301
:10066000D82FC62F0E9448068CE70E9478068AE1A0
:100670008A95F1F700C0DD2321F080E80E9478061A
:1006800003C080E40E9478068AE18A95F1F700C0F1
:100690008C2F0E9478060E94600685E88A95F1F703
:1006A0000000DF91CF9108952FEF8DE399E4215061
:1006B00080409040E1F700C0000068E081E00E94C7
:1006C0002E038FE097E20197F1F700C0000068E287
:1006D00081E00E942E038FE097E20197F1F700C0BE
:1006E000000068E281E00E942E038FE097E201970C
:1006F000F1F700C0000068E281E00E942E038FE065
:1007000097E20197F1F700C000006CE081E00E94E1
:100710002E038FE097E20197F1F700C000006CE034
:1007200081E00E942E038FE097E20197F1F700C06D
:10073000000061E081E00E942E038FE097E20197C4
:10074000F1F700C0000066E081E00E942E038FE018
:1007500097E20197F1F700C0000060E081E00E949D
:100760002E038FE097E20197F1F700C00000089593
:10077000682F80E00E942E038FE097E20197F1F747
:1007800000C000000895CF93DF93EC0103C02196D1
:100790000E94B80388818111FACFDF91CF9108952B
:1007A000CF93DF93CDB7DEB761970FB6F894DEBF76
:1007B0000FBECDBF0E94D6000E94D9000E943B060A
:1007C0000E9454030E94EC018AB182608AB98BB105
:1007D00082608BB91A821982FE0133968FE0DF01A5
:1007E0001D928A95E9F786E00E942D06BC0180E003
:1007F00090E00E943C0A20E030EC4FE754E40E9475
:10080000CA0928E431EE42E850E40E94CA0A6B01AA
:100810007C019B01AC0168E471EE82E890E40E94E7
:100820005D099B01AC01C701B6010E94CA0920E025
:1008300030E04AE754E40E94CA0A20E030E04AE788
:1008400054E40E945D0926E636E646E750E40E943D
:10085000CA09162F072FB82EA92E87E00E942D0651
:10086000BC0180E090E00E943C0A20E030EC4FE7C1
:1008700054E40E94CA0928E431EE42E850E40E94A0
:10088000CA0A6B017C019B01AC0168E471EE82E84D
:1008900090E40E945D099B01AC01C701B6010E9472
:1008A000CA0920E030E04AE754E40E94CA0A20E086
:1008B00030E04AE754E40E945D0926E636E646E762
:1008C00050E40E94CA09F62EE72ED82EC92E8AEAD5
:1008D0000E94A0018091EF01833031F440E060E09C
:1008E0008FEF0E94D10205C04CEF6CEF8CEF0E949D
:1008F000D10280911801882361F061E081E00E94BB
:100900002E03109218018FE99FE00197F1F700C0C4
:1009100000000E94E0008091EE01882321F08130E8
:1009200009F459C066C180910101813019F48093A6
:1009300002010FC0823069F081110BC08091020169
:10094000882339F081E08093EE01809318011092A2
:1009500002018091EA018A30C0F160E881E00E94E2
:100960002E03AF92BF920F931F938DE391E09F935D
:100970008F931F920F2EF1E1BF2EF02DBF928E01AB
:100980000F5F1F4F1F930F930E941510C8010E9405
:10099000C30360EC81E00E942E03CF92DF92EF92BE
:1009A000FF9282E591E09F938F931F92BF921F93D6
:1009B0000F930E941510C8010E94C3031092EA0110
:1009C0000FB6F894DEBF0FBECDBF8091EA018F5FF6
:1009D0008093EA010EC18091EB019091EC018A3F76
:1009E000910549F41092EC011092EB011092ED0187
:1009F0001092EE0105C001969093EC018093EB01FB
:100A00008091ED018230A9F130F4882369F08130C2
:100A100009F45CC0EEC0843009F4A2C008F47BC0C5
:100A2000853009F4C2C0E5C00E94400160E881E061
:100A30000E942E038DE0E7E6F1E0DE0111960190C1
:100A40000D928A95E1F7CE0101960E94C30360ECF6
:100A500081E00E942E038AE0E4E7F1E0DE011196D6
:100A600001900D928A95E1F7CE0101960E94C30391
:100A7000C0C00E94400160E881E00E942E038EE722
:100A800091E09F938F931F9281E18F938E010F5F6F
:100A90001F4F1F930F930E941510C8010E94C3039C
:100AA00060EC81E00E942E038AE0E0E9F1E0D801E9
:100AB00001900D928A95E1F7C8010E94C3030F903F
:100AC0000F900F900F900F900F9093C00E944001D5
:100AD00060E881E00E942E0381E1E8ECF1E0DE01B4
:100AE000119601900D928A95E1F7CE0101960E9430
:100AF000C30360EC81E00E942E038CE0EAE9F1E0A0
:100B0000DE01119601900D928A95E1F7CE010196D2
:100B10000E94C3036EC00E94400160E881E00E9411
:100B20002E038BE0E6EAF1E0DE01119601900D92D2
:100B30008A95E1F7CE0101960E94C30360EC81E043
:100B40000E942E0385E0E1EBF1E0DE0111960190B9
:100B50000D928A95E1F7CE0101960E94C30349C028
:100B60000E94400160E881E00E942E0385E0E6EBF0
:100B7000F1E0DE01119601900D928A95E1F7CE0128
:100B800001960E94C30360EC81E00E942E0386E080
:100B9000EBEBF1E0DE01119601900D928A95E1F701
:100BA000CE0101960E94C30324C00E94400160E868
:100BB00081E00E942E0381E1E9EDF1E0DE01119672
:100BC00001900D928A95E1F7CE0101960E94C30330
:100BD00060EC81E00E942E0387E0E1ECF1E0DE01B1
:100BE000119601900D928A95E1F7CE0101960E942F
:100BF000C303BFE728E381E0B15020408040E1F724
:100C000000C00000F0CDE4E6F0E080818E7F8083BC
:100C100010927C0081E880937A0010927B0080E043
:100C20000895ECE7F0E09081907F90839081892B8C
:100C30008083EAE7F0E0808180648083089580917A
:100C40007A008295817008952091780080917900D2
:100C500090E0982F8827822B08950E9411060E9409
:100C60001F068823E1F30E942406EAE7F0E02081D2
:100C70002061208308958AB188618AB98BB180612F
:100C80008BB98BB188608BB98BB188618BB90895B2
:100C90008AB180618AB98BB180618BB98BB1886070
:100CA0008BB983E08A95F1F700008BB18F7E8BB909
:100CB00083E08A95F1F700008BB1877F8BB90895A7
:100CC0008AB180618AB98BB1877F8BB98BB18F7EF6
:100CD0008BB983E08A95F1F700008BB188608BB9FE
:100CE00083E08A95F1F700008BB180618BB908959C
:100CF00020E019C0882324F49BB190619BB903C004
:100D00009BB19F7E9BB9880F9BB198609BB993E084
:100D10009A95F1F700009BB1977F9BB993E09A9564
:100D2000F1F700002F5F283028F38AB18F7E8AB94F
:100D30008BB188608BB983E08A95F1F7000089B1A7
:100D400082958F7091E089279BB1977F9BB99AB16B
:100D500090619AB9817008950E940306089584B144
:100D60008F7E84B985B18F7E85B984B1886084B95E
:100D700085B1877F85B984B1806284B985B18F7D63
:100D800085B908958FEE8093640084B114B885B15D
:100D90009FEF95B987B1807887B988B18F6788B997
:100DA0008AB11AB88BB19BB98DB1807F8DB98EB1E4
:100DB0008F608EB940E060E881E690E00E9408090B
:100DC00013BE15BE0E9406090E94AC060E94AF0623
:100DD000089580E98093BC00E0EFF1E080818E7F90
:100DE000808313868EE00895E0EFF1E080818E7FAE
:100DF0008083138680E00895ECEBF0E08081806AC8
:100E0000808381E00895ECEBF0E08081806A80834C
:100E100082E00895ECEBF0E08081806A808381E0DD
:100E20000895ECEBF0E08081806980830E94F406F5
:100E30000895A0EFB1E082E01B968C931B9750962B
:100E4000ED91FC9151975C968D919C915D970995E0
:100E5000823019F0833021F006C00E94FC0608950C
:100E60000E94030708950E94110708958091B90018
:100E7000887F883041F08091B900887F803119F0F7
:100E80000E94E90608958091F10190E0880F991F72
:100E900081608093BB00ECEBF0E080818F7D8083EC
:100EA0008081806880838AE008958091B900887F7E
:100EB000883041F08091B900887F803119F00E941C
:100EC000E90608958091F101880F8093BB00ECEB57
:100ED000F0E080818F7D80838081806880838BE0DB
:100EE00008958091B900887F803419F00E94190715
:100EF00008958091F4019091F501019739F4ECEB9C
:100F0000F0E080818F7B808384E00895ECEBF0E05B
:100F100080818064808384E008958091B900887F17
:100F2000883119F00E941907089583E00895ECEBC9
:100F3000F0E08081806980830E94F4060895ECEBE4
:100F4000F0E08081806A808388E008958091B90014
:100F5000887F803351F08091B900887F883429F0F0
:100F60008091B900887F8032C9F4A0EFB1E0529639
:100F7000ED91FC9153975E968D919C915F970995A9
:100F8000823019F0833021F006C00E94FC060895DB
:100F90000E94030708950E9411070895E0EFF1E011
:100FA000A281B381CD010196938382838C9180933A
:100FB000BB00ACEBB0E08C9180688C938481958110
:100FC000019795838483892B11F083E0089585E050
:100FD00008958091B900887F803541F08091B900F3
:100FE000887F883519F00E94E90608958091F40100
:100FF0009091F501029731F4ECEBF0E080818F7B6A
:10100000808305C0ECEBF0E0808180648083E0EFBA
:10101000F1E084819581019795838483892B89F000
:10102000A281B3818091BB008C93828193810196D0
:1010300093838283ECEBF0E080818068808384E09E
:101040000895A0EFB1E01296ED91FC911397809175
:10105000BB00808312968D919C91139701961396F5
:101060009C938E9312978C9184608C931C96ED9137
:10107000FC911D9758968D919C9159970995825096
:10108000823018F40E949F0708950E9497070895E0
:101090008091B900887F803351F08091B900887FBA
:1010A000883429F08091B900887F8032C9F4A0EF9C
:1010B000B1E05296ED91FC9153975E968D919C9183
:1010C0005F970995823019F0833021F006C00E94A5
:1010D000FC0608950E94030708950E9411070895D1
:1010E000A0EFB1E08C9184608C931C96ED91FC9103
:1010F0001D9758968D919C9159970995833039F099
:10110000843041F0823049F40E94FC0608950E9428
:10111000030708950E94A60708950E9411070895E5
:10112000A0EFB1E082E01B968C931B971E96ED9189
:10113000FC911F975A968D919C915B9709958230EF
:1011400019F0833021F006C00E94FC0608950E9429
:10115000030708950E94E906089580E98093BC0082
:10116000E0EFF1E080818E7F808382E083878EE0F4
:101170000895CF93DF938091B900887F883379F009
:101180008091B900887F883651F08091B900887FBE
:10119000883729F08091B900887F803B19F480E17D
:1011A0008093FA01C0EFD1E0EA85F0E0EE0FFF1F77
:1011B000E75EFE4F0190F081E02D09958A87DF916F
:1011C000CF9108951F920F920FB60F9211242F9373
:1011D0003F934F935F936F937F938F939F93AF93BF
:1011E000BF93EF93FF930E94B908FF91EF91BF91D6
:1011F000AF919F918F917F916F915F914F913F91AF
:101200002F910F900FBE0F901F90189580E00895BA
:101210002FB7F894FC01608340832FBF08951F927D
:101220000F920FB60F9211242F933F934F935F931A
:101230006F937F938F939F93AF93BF93EF93FF939E
:101240009EB580911802823029F0E0911502F0914C
:1012500016029083E4E1F2E0A181B2819D012F5F4B
:101260003F4F32832183813019F011969C9101C048
:1012700090E0E4E1F2E0838181508383882311F0E0
:101280009EBD0AC0E4E1F2E083E080830580F68140
:10129000E02D309709F00995FF91EF91BF91AF9143
:1012A0009F918F917F916F915F914F913F912F917E
:1012B0000F900FBE0F901F9018955058BB27AA276C
:1012C0000E9475090C94900A0E94820A38F00E94CC
:1012D000890A20F039F49F3F19F426F40C947F0A10
:1012E0000EF4E095E7FB0C94790AE92F0E94A10A1D
:1012F00058F3BA17620773078407950720F079F44B
:10130000A6F50C94C30A0EF4E0950B2EBA2FA02D6F
:101310000B01B90190010C01CA01A0011124FF27A2
:10132000591B99F0593F50F4503E68F11A16F0409D
:10133000A22F232F342F4427585FF3CF469537959C
:101340002795A795F0405395C9F77EF41F16BA0B61
:10135000620B730B840BBAF09150A1F0FF0FBB1F0F
:10136000661F771F881FC2F70EC0BA0F621F731F58
:10137000841F48F4879577956795B795F7959E3FB5
:1013800008F0B0CF9395880F08F09927EE0F979546
:10139000879508950E94DE090C94900A0E94890A9C
:1013A00058F00E94820A40F029F45F3F29F00C9423
:1013B000790A51110C94C40A0C947F0A0E94A10A64
:1013C00068F39923B1F3552391F3951B550BBB2774
:1013D000AA2762177307840738F09F5F5F4F220FB9
:1013E000331F441FAA1FA9F335D00E2E3AF0E0E8B0
:1013F00032D091505040E695001CCAF72BD0FE2FFA
:1014000029D0660F771F881FBB1F2617370748078D
:10141000AB07B0E809F0BB0B802DBF01FF27935845
:101420005F4F3AF09E3F510578F00C94790A0C9486
:10143000C40A5F3FE4F3983ED4F3869577956795A9
:10144000B795F7959F5FC9F7880F911D969587957A
:1014500097F90895E1E0660F771F881FBB1F621799
:1014600073078407BA0720F0621B730B840BBA0B57
:10147000EE1F88F7E0950895E89409C097FB3EF4C5
:1014800090958095709561957F4F8F4F9F4F9923D1
:10149000A9F0F92F96E9BB279395F695879577954F
:1014A0006795B795F111F8CFFAF4BB0F11F460FF0F
:1014B0001BC06F5F7F4F8F4F9F4F16C0882311F067
:1014C00096E911C0772321F09EE8872F762F05C07B
:1014D000662371F096E8862F70E060E02AF09A9516
:1014E000660F771F881FDAF7880F9695879597F90B
:1014F000089597F99F6780E870E060E008959FEF96
:1015000080EC089500240A9416161706180609069A
:10151000089500240A941216130614060506089569
:10152000092E0394000C11F4882352F0BB0F40F4F1
:10153000BF2B11F460FF04C06F5F7F4F8F4F9F4F31
:10154000089557FD9058440F551F59F05F3F71F0B3
:101550004795880F97FB991F61F09F3F79F087951A
:101560000895121613061406551FF2CF4695F1DFA3
:1015700008C0161617061806991FF1CF8695710533
:10158000610508940895E894BB2766277727CB0167
:1015900097F908950E94DD0A0C94900A0E94820A2D
:1015A00038F00E94890A20F0952311F00C94790AF2
:1015B0000C947F0A11240C94C40A0E94A10A70F3AF
:1015C000959FC1F3950F50E0551F629FF001729FE8
:1015D000BB27F00DB11D639FAA27F00DB11DAA1FF7
:1015E000649F6627B00DA11D661F829F2227B00D44
:1015F000A11D621F739FB00DA11D621F839FA00DCF
:10160000611D221F749F3327A00D611D231F849F1E
:10161000600D211D822F762F6A2F11249F57504075
:101620009AF0F1F088234AF0EE0FFF1FBB1F661FF0
:10163000771F881F91505040A9F79E3F510580F0B9
:101640000C94790A0C94C40A5F3FE4F3983ED4F3F7
:10165000869577956795B795F795E7959F5FC1F75D
:10166000FE2B880F911D9695879597F90895A0E117
:10167000B0E0EDE3FBE00C94B40E7C011B016A01C9
:10168000FC0117821682838181FF44C39E012F5F74
:101690003F4F3901F7019381F10193FD859193FF4C
:1016A00081911F01882309F431C3853239F493FDF8
:1016B000859193FF81911F01853239F4B70190E044
:1016C0000E94D90F56016501E5CF10E0512C912CF5
:1016D000FFE1F915D8F08B3279F038F4803279F0E7
:1016E0008332A1F4F92DF0612EC08D3261F0803388
:1016F00069F4292D21602DC0392D3260932E892D5A
:101700008460982E2AC0E92DE86015C097FC2DC092
:1017100020ED280F2A3088F496FE06C03AE0139F89
:10172000200D1124122F19C08AE0589E200D11247B
:10173000522EE92DE0629E2E10C08E3231F496FCBE
:10174000E5C2F92DF0649F2E08C08C3621F4292DB6
:101750002068922E02C0883641F4F10193FD8591F4
:1017600093FF81911F018111B3CF9BEB980F9330B1
:1017700020F4992D9061805E07C09BE9980F93300B
:1017800008F066C1992D9F7E96FF16E09F73992EF3
:10179000853619F49064992E08C0863621F4392FC5
:1017A0003068932E02C01111115097FE07C01C33F0
:1017B00050F444244394410E27E00BC0183038F015
:1017C00027E017E005C027E09CE3492E02C0212F47
:1017D000412C560184E0A80EB11CF6016081718194
:1017E00082819381042DA3010E94EB0E6C01F9818B
:1017F000FC87F0FF02C0F3FF06C091FC06C092FE1A
:1018000006C000E205C00DE203C00BE201C000E02B
:101810008C858C7019F001115AC29BC297FE10C0C2
:101820004C0CFC85F4FF04C08A81813309F44A948E
:10183000141474F528E0241578F588E0482E2CC09F
:1018400096FC2AC0812F90E08C159D059CF03CEF02
:10185000C3163FEFD30674F0892D8068982E0AC016
:10186000E2E0F0E0EC0FFD1FE10FF11D808180331D
:1018700019F411501111F4CF97FE0EC04424439473
:10188000410E812F90E0C816D9062CF41C1904C013
:101890004424439401C010E097FE06C01C141D04AC
:1018A00034F4C601019605C085E090E002C081E0F5
:1018B00090E001110196112331F0212F30E02F5FCC
:1018C0003F4F820F931F252D30E08217930714F4AA
:1018D000581A01C0512C892D897049F4552039F0CE
:1018E000B70180E290E00E94D90F5A94F7CF00230D
:1018F00029F0B701802F90E00E94D90F93FC09C016
:10190000552039F0B70180E390E00E94D90F5A9436
:10191000F7CF97FE4CC04601D7FE02C0812C912C18
:10192000C60188199909F301E80FF91FFE87ED87B1
:10193000960124193109388B2F87012F10E011955A
:10194000019511093FEF8316930629F4B7018EE242
:1019500090E00E94D90FC814D9044CF08F85988963
:101960008815990524F4ED85FE85818101C080E309
:10197000F1E08F1A91082D853E852F5F3F4F3E87FE
:101980002D87801691062CF0B70190E00E94D90FA8
:10199000D9CFC814D90441F49A81963320F49533F1
:1019A00019F43C8534FF81E3B70190E04EC08A8191
:1019B000813319F09C859F7E9C87B70190E00E943F
:1019C000D90F111105C094FC18C085E690E017C02E
:1019D000B7018EE290E00E94D90F1E5F82E001E025
:1019E000080FF301E80FF11D8081B70190E00E941C
:1019F000D90F802F0113F3CFE6CF85E490E0B70134
:101A00000E94D90FD7FC06C0C114D10441F4EC8563
:101A1000E4FF05C0D194C194D1088DE201C08BE2EE
:101A2000B70190E00E94D90F80E32AE0C216D104EA
:101A30002CF08F5FFAE0CF1AD108F7CFB70190E012
:101A40000E94D90FB701C601C0960E94D90F54C198
:101A5000833631F0833779F0833509F056C020C0E2
:101A6000560132E0A30EB11CF6018081898301E0AA
:101A700010E0630112C05601F2E0AF0EB11CF60196
:101A8000C080D18096FE03C0612F70E002C06FEF6E
:101A90007FEFC6010E94CE0F8C01F92DFF7714C095
:101AA000560122E0A20EB11CF601C080D18096FE44
:101AB00003C0612F70E002C06FEF7FEFC6010E948C
:101AC000C30F8C01F92DF0689F2EF3FD1AC0852DF0
:101AD00090E008171907A8F4B70180E290E00E948F
:101AE000D90F5A94F4CFF60197FC859197FE819116
:101AF0006F01B70190E00E94D90F51105A94015024
:101B000011090115110579F7F7C0843611F08936EE
:101B100061F5560197FE09C024E0A20EB11CF60142
:101B200060817181828193810AC0F2E0AF0EB11CA5
:101B3000F60160817181072E000C880B990BF92D3D
:101B4000FF769F2E97FF09C09095809570956195BF
:101B50007F4F8F4F9F4FF0689F2E2AE030E0A30108
:101B60000E944510C82EC6183FC0092D853721F4A4
:101B70000F7E2AE030E01DC0097F8F3691F018F407
:101B8000883559F0C3C0803719F0883711F0BEC0CE
:101B9000006104FF09C0046007C094FE08C006602D
:101BA00006C028E030E005C020E130E002C020E1BE
:101BB00032E0560107FF09C084E0A80EB11CF6010F
:101BC000608171818281938108C0F2E0AF0EB11C07
:101BD000F6016081718180E090E0A3010E944510D0
:101BE000C82EC6180F77902E96FE0BC0092D0E7FBB
:101BF000C11650F494FE0AC092FC08C0092D0E7E56
:101C000005C0DC2C092D03C0DC2C01C0D12E04FF43
:101C10000DC0FE01EC0DF11D8081803311F4097EB1
:101C200009C002FF06C0D394D39404C0802F8678E5
:101C300009F0D39403FD11C000FF06C01C2DD5147C
:101C400080F4150D1D190DC0D51458F4B70180E2AC
:101C500090E00E94D90FD394F7CFD51410F45D18FB
:101C600001C0512C04FF10C0B70180E390E00E9436
:101C7000D90F02FF17C001FD03C088E790E002C042
:101C800088E590E0B7010CC0802F867859F001FFFD
:101C900002C08BE201C080E207FD8DE2B70190E057
:101CA0000E94D90FC11638F4B70180E390E00E947A
:101CB000D90F1150F7CFCA94F301EC0DF11D8081BB
:101CC000B70190E00E94D90FC110F5CF15C0F4E024
:101CD000F51560F584E0581A93FE1FC0011127C066
:101CE0002C8523FF2AC00CE610E0392D3071932E8D
:101CF000F8018491811124C0552009F4E4CCB70186
:101D000080E290E00E94D90F5A94F6CFF7018681C5
:101D1000978126C08FEF9FEF23C0B70180E290E04C
:101D20000E94D90F5A945110F8CFD8CF512CB70137
:101D3000802F90E00E94D90FD3CF00E710E0D5CFDD
:101D400091108052B70190E00E94D90F0F5F1F4F92
:101D5000CFCF23E0251510F483E0BDCF512CC0CFA9
:101D60006096E2E10C94D00E2F923F924F925F92D8
:101D70006F927F928F929F92AF92BF92CF92DF929B
:101D8000EF92FF920F931F93CF93DF93CDB7DEB700
:101D9000CA1BDB0B0FB6F894DEBF0FBECDBF099494
:101DA0002A88398848885F846E847D848C849B84EB
:101DB000AA84B984C884DF80EE80FD800C811B81F9
:101DC000AA81B981CE0FD11D0FB6F894DEBF0FBE28
:101DD000CDBFED010895283008F027E03327DA0160
:101DE000990F311D87FD916000966105710539F4E9
:101DF00032602E5F3D9330E32A95E1F708959F3FCF
:101E000030F080387105610509F03C5F3C5F3D931F
:101E1000913008F08068911DDF93CF931F930F934B
:101E2000FF92EF92192F987F9695E92F96959695A8
:101E3000E90FFF27E253FF4F99273327EE24FF24B2
:101E4000A701E70105900894079428F4360FE71ED0
:101E5000F81E491F511D660F771F881F991F069492
:101E6000A1F70590079428F4E70EF81E491F561FA6
:101E7000C11D770F881F991F661F0694A1F7059053
:101E8000079428F4F80E491F561FC71FD11D880F4D
:101E9000991F661F771F0694A1F70590079420F4F9
:101EA000490F561FC71FD81F990F661F771F881F1E
:101EB0000694A9F784911095177041F0D695C795AF
:101EC00057954795F794E7941A95C1F7E4E7F0E042
:101ED00068941590159135916591959105907FE2E3
:101EE0007395E118F10A430B560BC90BD009C0F7E3
:101EF000E10CF11E431F561FC91FD01D7EF4703325
:101F000011F48A95E6CFE894015030F0080F0AF4F6
:101F10000027021708F4202F2395022F7A3328F088
:101F200079E37D932A95E9F710C07D932A9589F688
:101F3000069497956795379517951794E118F10AC8
:101F4000430B560BC90BD00998F023957E917395DE
:101F50007A3308F070E37C932013B8F77E917061B8
:101F60007D9330F0839571E37D9370E32A95E1F7DB
:101F70001124EF90FF900F911F91CF91DF9199273E
:101F800087FD90950895FC01059061507040011007
:101F9000D8F7809590958E0F9F1F0895FC01615092
:101FA000704001900110D8F7809590958E0F9F1F7B
:101FB00008950F931F93CF93DF93FB01238121FD9E
:101FC00003C08FEF9FEF2CC022FF16C046815781C0
:101FD000248135814217530744F4A081B1819D01CA
:101FE0002F5F3F4F318320838C93268137812F5F72
:101FF0003F4F3783268314C08B01EC01FB01008423
:10200000F185E02D0995892BE1F6D80116968D9181
:102010009C911797019617969C938E931697CE01D5
:10202000DF91CF911F910F910895AEE0B0E0EBE109
:10203000F0E10C94C20E0D891E898F89988D26E0DF
:102040002C831A83098397FF02C080E090E80197F0
:102050009E838D83AE01455E5F4F698D7A8DCE0183
:1020600001960E94370B4D815E8157FD0AC02F817A
:102070003885421753070CF49A01F801E20FF31F59
:1020800010822E96E4E00C94DE0EFA01AA27283086
:1020900051F1203181F1E8946F936E7F6E5F7F4F35
:1020A0008F4F9F4FAF4FB1E03ED0B4E03CD0670FB1
:1020B000781F891F9A1FA11D680F791F8A1F911D04
:1020C000A11D6A0F711D811D911DA11D20D009F454
:1020D00068943F912AE0269F11243019305D319396
:1020E000DEF6CF010895462F4770405D4193B3E07F
:1020F0000FD0C9F7F6CF462F4F70405D4A3318F026
:10210000495D31FD4052419302D0A9F7EACFB4E0D6
:10211000A6959795879577956795BA95C9F700978E
:102120006105710508959B01AC010A2E069457952F
:10213000479537952795BA95C9F7620F731F841F86
:0A214000951FA01D0895F894FFCF2D
:10214A00000000000100000002000000030000007F
:10215A00040000000500000001F40636075507A632
:10216A0007E9074808FC0603070A07110771078DE4
:10217A000797079F07E90619079008AD08743120E9
:10218A00252E3166DF4320202020202020202020F9
:10219A002000743220252E3166DF432020202020A3
:1021AA00202020202020004C617461757370756DA9
:1021BA00707075007431203E203730DF4300506163
:1021CA006C75756C617461757370756D707075007E
:1021DA00207431203C2074322000207431203E3D8E
:1021EA00203930DF43004879737465726565736915
:1021FA00002032DF4300415643430020352E30563B
:10220A000020302E30DF430050756D7070752073DA
:10221A006569732C206A6F73004C616D706F746905
:0A222A006C616B6F726A61757300DE
:00000001FF
